{
    "_format": "hh-sol-artifact-1",
    "contractName": "TokenPreSale",
    "sourceName": "contracts/presale.sol",
    "abi": [
        {
            "inputs": [
                {
                    "internalType": "address",
                    "name": "_token",
                    "type": "address"
                }
            ],
            "stateMutability": "nonpayable",
            "type": "constructor"
        },
        {
            "inputs": [
                {
                    "internalType": "address",
                    "name": "target",
                    "type": "address"
                }
            ],
            "name": "AddressEmptyCode",
            "type": "error"
        },
        {
            "inputs": [
                {
                    "internalType": "address",
                    "name": "account",
                    "type": "address"
                }
            ],
            "name": "AddressInsufficientBalance",
            "type": "error"
        },
        {
            "inputs": [],
            "name": "FailedInnerCall",
            "type": "error"
        },
        {
            "inputs": [
                {
                    "internalType": "address",
                    "name": "owner",
                    "type": "address"
                }
            ],
            "name": "OwnableInvalidOwner",
            "type": "error"
        },
        {
            "inputs": [
                {
                    "internalType": "address",
                    "name": "account",
                    "type": "address"
                }
            ],
            "name": "OwnableUnauthorizedAccount",
            "type": "error"
        },
        {
            "inputs": [],
            "name": "ReentrancyGuardReentrantCall",
            "type": "error"
        },
        {
            "inputs": [
                {
                    "internalType": "address",
                    "name": "token",
                    "type": "address"
                }
            ],
            "name": "SafeERC20FailedOperation",
            "type": "error"
        },
        {
            "anonymous": false,
            "inputs": [
                {
                    "indexed": true,
                    "internalType": "address",
                    "name": "previousOwner",
                    "type": "address"
                },
                {
                    "indexed": true,
                    "internalType": "address",
                    "name": "newOwner",
                    "type": "address"
                }
            ],
            "name": "OwnershipTransferred",
            "type": "event"
        },
        {
            "anonymous": false,
            "inputs": [
                {
                    "indexed": true,
                    "internalType": "uint256",
                    "name": "_id",
                    "type": "uint256"
                },
                {
                    "indexed": false,
                    "internalType": "uint256",
                    "name": "_startTime",
                    "type": "uint256"
                },
                {
                    "indexed": false,
                    "internalType": "uint256",
                    "name": "_endTime",
                    "type": "uint256"
                },
                {
                    "indexed": false,
                    "internalType": "uint256",
                    "name": "_totalTokens",
                    "type": "uint256"
                }
            ],
            "name": "PresaleCreated",
            "type": "event"
        },
        {
            "anonymous": false,
            "inputs": [
                {
                    "indexed": true,
                    "internalType": "uint256",
                    "name": "id",
                    "type": "uint256"
                },
                {
                    "indexed": false,
                    "internalType": "uint256",
                    "name": "timestamp",
                    "type": "uint256"
                }
            ],
            "name": "PresalePaused",
            "type": "event"
        },
        {
            "anonymous": false,
            "inputs": [
                {
                    "indexed": true,
                    "internalType": "uint256",
                    "name": "id",
                    "type": "uint256"
                },
                {
                    "indexed": false,
                    "internalType": "uint256",
                    "name": "timestamp",
                    "type": "uint256"
                }
            ],
            "name": "PresaleUnpaused",
            "type": "event"
        },
        {
            "anonymous": false,
            "inputs": [
                {
                    "indexed": true,
                    "internalType": "bytes32",
                    "name": "key",
                    "type": "bytes32"
                },
                {
                    "indexed": false,
                    "internalType": "uint256",
                    "name": "prevValue",
                    "type": "uint256"
                },
                {
                    "indexed": false,
                    "internalType": "uint256",
                    "name": "newValue",
                    "type": "uint256"
                },
                {
                    "indexed": false,
                    "internalType": "uint256",
                    "name": "timestamp",
                    "type": "uint256"
                }
            ],
            "name": "PresaleUpdated",
            "type": "event"
        },
        {
            "anonymous": false,
            "inputs": [
                {
                    "indexed": true,
                    "internalType": "address",
                    "name": "user",
                    "type": "address"
                },
                {
                    "indexed": true,
                    "internalType": "uint256",
                    "name": "id",
                    "type": "uint256"
                },
                {
                    "indexed": false,
                    "internalType": "uint256",
                    "name": "tokensBought",
                    "type": "uint256"
                },
                {
                    "indexed": false,
                    "internalType": "uint256",
                    "name": "amountPaid",
                    "type": "uint256"
                },
                {
                    "indexed": false,
                    "internalType": "uint256",
                    "name": "timestamp",
                    "type": "uint256"
                }
            ],
            "name": "TokensBought",
            "type": "event"
        },
        {
            "anonymous": false,
            "inputs": [
                {
                    "indexed": true,
                    "internalType": "address",
                    "name": "user",
                    "type": "address"
                },
                {
                    "indexed": true,
                    "internalType": "uint256",
                    "name": "id",
                    "type": "uint256"
                },
                {
                    "indexed": false,
                    "internalType": "uint256",
                    "name": "amount",
                    "type": "uint256"
                },
                {
                    "indexed": false,
                    "internalType": "uint256",
                    "name": "timestamp",
                    "type": "uint256"
                }
            ],
            "name": "TokensClaimed",
            "type": "event"
        },
        {
            "inputs": [],
            "name": "buyWithEth",
            "outputs": [
                {
                    "internalType": "bool",
                    "name": "",
                    "type": "bool"
                }
            ],
            "stateMutability": "payable",
            "type": "function"
        },
        {
            "inputs": [
                {
                    "internalType": "uint256",
                    "name": "usdcToSpend",
                    "type": "uint256"
                }
            ],
            "name": "buyWithUsdc",
            "outputs": [
                {
                    "internalType": "bool",
                    "name": "",
                    "type": "bool"
                }
            ],
            "stateMutability": "nonpayable",
            "type": "function"
        },
        {
            "inputs": [
                {
                    "internalType": "uint256",
                    "name": "usdtToSpend",
                    "type": "uint256"
                }
            ],
            "name": "buyWithUsdt",
            "outputs": [
                {
                    "internalType": "bool",
                    "name": "",
                    "type": "bool"
                }
            ],
            "stateMutability": "nonpayable",
            "type": "function"
        },
        {
            "inputs": [
                {
                    "internalType": "uint256",
                    "name": "_newPrice",
                    "type": "uint256"
                }
            ],
            "name": "changePrice",
            "outputs": [],
            "stateMutability": "nonpayable",
            "type": "function"
        },
        {
            "inputs": [
                {
                    "internalType": "uint256",
                    "name": "_startTime",
                    "type": "uint256"
                },
                {
                    "internalType": "uint256",
                    "name": "_endTime",
                    "type": "uint256"
                }
            ],
            "name": "changeSaleTimes",
            "outputs": [],
            "stateMutability": "nonpayable",
            "type": "function"
        },
        {
            "inputs": [
                {
                    "internalType": "uint256",
                    "name": "_tokenAmountToSale",
                    "type": "uint256"
                }
            ],
            "name": "changeTokenAmountForSale",
            "outputs": [],
            "stateMutability": "nonpayable",
            "type": "function"
        },
        {
            "inputs": [
                {
                    "internalType": "uint256",
                    "name": "_spendingAmountInDollars",
                    "type": "uint256"
                }
            ],
            "name": "checkBonusEligibility",
            "outputs": [
                {
                    "internalType": "uint256",
                    "name": "bonusPercentage",
                    "type": "uint256"
                }
            ],
            "stateMutability": "pure",
            "type": "function"
        },
        {
            "inputs": [
                {
                    "internalType": "uint256",
                    "name": "_id",
                    "type": "uint256"
                }
            ],
            "name": "claimRefund",
            "outputs": [
                {
                    "internalType": "bool",
                    "name": "",
                    "type": "bool"
                }
            ],
            "stateMutability": "nonpayable",
            "type": "function"
        },
        {
            "inputs": [
                {
                    "internalType": "uint256",
                    "name": "_id",
                    "type": "uint256"
                }
            ],
            "name": "claimTokens",
            "outputs": [
                {
                    "internalType": "bool",
                    "name": "",
                    "type": "bool"
                }
            ],
            "stateMutability": "nonpayable",
            "type": "function"
        },
        {
            "inputs": [
                {
                    "internalType": "address",
                    "name": "userAddress",
                    "type": "address"
                },
                {
                    "internalType": "uint256",
                    "name": "_id",
                    "type": "uint256"
                }
            ],
            "name": "claimableAmount",
            "outputs": [
                {
                    "internalType": "uint256",
                    "name": "",
                    "type": "uint256"
                }
            ],
            "stateMutability": "view",
            "type": "function"
        },
        {
            "inputs": [
                {
                    "internalType": "uint256",
                    "name": "_startTime",
                    "type": "uint256"
                },
                {
                    "internalType": "uint256",
                    "name": "_endTime",
                    "type": "uint256"
                },
                {
                    "internalType": "uint256",
                    "name": "_price",
                    "type": "uint256"
                },
                {
                    "internalType": "uint256",
                    "name": "_tokenAmountToSell",
                    "type": "uint256"
                }
            ],
            "name": "createPresale",
            "outputs": [],
            "stateMutability": "nonpayable",
            "type": "function"
        },
        {
            "inputs": [],
            "name": "getLatestEthPrice",
            "outputs": [
                {
                    "internalType": "uint256",
                    "name": "",
                    "type": "uint256"
                }
            ],
            "stateMutability": "view",
            "type": "function"
        },
        {
            "inputs": [],
            "name": "getLatestUsdcPrice",
            "outputs": [
                {
                    "internalType": "uint256",
                    "name": "",
                    "type": "uint256"
                }
            ],
            "stateMutability": "view",
            "type": "function"
        },
        {
            "inputs": [],
            "name": "getLatestUsdtPrice",
            "outputs": [
                {
                    "internalType": "uint256",
                    "name": "",
                    "type": "uint256"
                }
            ],
            "stateMutability": "view",
            "type": "function"
        },
        {
            "inputs": [
                {
                    "internalType": "uint256",
                    "name": "_ethAmount",
                    "type": "uint256"
                }
            ],
            "name": "getTokenAmountForEth",
            "outputs": [
                {
                    "internalType": "uint256",
                    "name": "tokenQuantityWithBonus",
                    "type": "uint256"
                }
            ],
            "stateMutability": "view",
            "type": "function"
        },
        {
            "inputs": [
                {
                    "internalType": "uint256",
                    "name": "_fiatAmount",
                    "type": "uint256"
                }
            ],
            "name": "getTokenAmountForFiat",
            "outputs": [
                {
                    "internalType": "uint256",
                    "name": "tokenQuantityWithBonus",
                    "type": "uint256"
                }
            ],
            "stateMutability": "view",
            "type": "function"
        },
        {
            "inputs": [
                {
                    "internalType": "uint256",
                    "name": "usdcToSpend",
                    "type": "uint256"
                }
            ],
            "name": "getTokenAmountForUsdc",
            "outputs": [
                {
                    "internalType": "uint256",
                    "name": "tokenQuantityWithBonus",
                    "type": "uint256"
                }
            ],
            "stateMutability": "view",
            "type": "function"
        },
        {
            "inputs": [
                {
                    "internalType": "uint256",
                    "name": "usdtToSpend",
                    "type": "uint256"
                }
            ],
            "name": "getTokenAmountForUsdt",
            "outputs": [
                {
                    "internalType": "uint256",
                    "name": "tokenQuantityWithBonus",
                    "type": "uint256"
                }
            ],
            "stateMutability": "view",
            "type": "function"
        },
        {
            "inputs": [],
            "name": "owner",
            "outputs": [
                {
                    "internalType": "address",
                    "name": "",
                    "type": "address"
                }
            ],
            "stateMutability": "view",
            "type": "function"
        },
        {
            "inputs": [],
            "name": "pausePresale",
            "outputs": [],
            "stateMutability": "nonpayable",
            "type": "function"
        },
        {
            "inputs": [
                {
                    "internalType": "uint256",
                    "name": "",
                    "type": "uint256"
                }
            ],
            "name": "paused",
            "outputs": [
                {
                    "internalType": "bool",
                    "name": "",
                    "type": "bool"
                }
            ],
            "stateMutability": "view",
            "type": "function"
        },
        {
            "inputs": [
                {
                    "internalType": "uint256",
                    "name": "",
                    "type": "uint256"
                }
            ],
            "name": "presale",
            "outputs": [
                {
                    "internalType": "uint256",
                    "name": "startTime",
                    "type": "uint256"
                },
                {
                    "internalType": "uint256",
                    "name": "endTime",
                    "type": "uint256"
                },
                {
                    "internalType": "uint256",
                    "name": "price",
                    "type": "uint256"
                },
                {
                    "internalType": "uint256",
                    "name": "tokensToSell",
                    "type": "uint256"
                },
                {
                    "internalType": "uint256",
                    "name": "inSale",
                    "type": "uint256"
                }
            ],
            "stateMutability": "view",
            "type": "function"
        },
        {
            "inputs": [],
            "name": "presaleId",
            "outputs": [
                {
                    "internalType": "uint256",
                    "name": "",
                    "type": "uint256"
                }
            ],
            "stateMutability": "view",
            "type": "function"
        },
        {
            "inputs": [
                {
                    "internalType": "uint256",
                    "name": "",
                    "type": "uint256"
                }
            ],
            "name": "presaleStatus",
            "outputs": [
                {
                    "internalType": "bool",
                    "name": "completed",
                    "type": "bool"
                },
                {
                    "internalType": "bool",
                    "name": "isSuccess",
                    "type": "bool"
                }
            ],
            "stateMutability": "view",
            "type": "function"
        },
        {
            "inputs": [],
            "name": "priceFeedEthUsd",
            "outputs": [
                {
                    "internalType": "contract AggregatorV3Interface",
                    "name": "",
                    "type": "address"
                }
            ],
            "stateMutability": "view",
            "type": "function"
        },
        {
            "inputs": [],
            "name": "priceFeedUsdcUsd",
            "outputs": [
                {
                    "internalType": "contract AggregatorV3Interface",
                    "name": "",
                    "type": "address"
                }
            ],
            "stateMutability": "view",
            "type": "function"
        },
        {
            "inputs": [],
            "name": "priceFeedUsdtUsd",
            "outputs": [
                {
                    "internalType": "contract AggregatorV3Interface",
                    "name": "",
                    "type": "address"
                }
            ],
            "stateMutability": "view",
            "type": "function"
        },
        {
            "inputs": [
                {
                    "internalType": "address",
                    "name": "_addr",
                    "type": "address"
                },
                {
                    "internalType": "uint256",
                    "name": "_fiatAmount",
                    "type": "uint256"
                }
            ],
            "name": "registerFiatUsers",
            "outputs": [
                {
                    "internalType": "bool",
                    "name": "",
                    "type": "bool"
                }
            ],
            "stateMutability": "nonpayable",
            "type": "function"
        },
        {
            "inputs": [],
            "name": "renounceOwnership",
            "outputs": [],
            "stateMutability": "nonpayable",
            "type": "function"
        },
        {
            "inputs": [],
            "name": "token",
            "outputs": [
                {
                    "internalType": "contract IERC20",
                    "name": "",
                    "type": "address"
                }
            ],
            "stateMutability": "view",
            "type": "function"
        },
        {
            "inputs": [
                {
                    "internalType": "address",
                    "name": "newOwner",
                    "type": "address"
                }
            ],
            "name": "transferOwnership",
            "outputs": [],
            "stateMutability": "nonpayable",
            "type": "function"
        },
        {
            "inputs": [],
            "name": "unPausePresale",
            "outputs": [],
            "stateMutability": "nonpayable",
            "type": "function"
        },
        {
            "inputs": [
                {
                    "internalType": "bool",
                    "name": "_success",
                    "type": "bool"
                }
            ],
            "name": "updatePresaleStatus",
            "outputs": [],
            "stateMutability": "nonpayable",
            "type": "function"
        },
        {
            "inputs": [],
            "name": "usdc",
            "outputs": [
                {
                    "internalType": "contract IERC20",
                    "name": "",
                    "type": "address"
                }
            ],
            "stateMutability": "view",
            "type": "function"
        },
        {
            "inputs": [],
            "name": "usdt",
            "outputs": [
                {
                    "internalType": "contract IERC20",
                    "name": "",
                    "type": "address"
                }
            ],
            "stateMutability": "view",
            "type": "function"
        },
        {
            "inputs": [
                {
                    "internalType": "address",
                    "name": "",
                    "type": "address"
                },
                {
                    "internalType": "uint256",
                    "name": "",
                    "type": "uint256"
                }
            ],
            "name": "user",
            "outputs": [
                {
                    "internalType": "uint256",
                    "name": "totalQuantity",
                    "type": "uint256"
                },
                {
                    "internalType": "uint256",
                    "name": "ethAmountSent",
                    "type": "uint256"
                },
                {
                    "internalType": "uint256",
                    "name": "usdcAmountSent",
                    "type": "uint256"
                },
                {
                    "internalType": "uint256",
                    "name": "usdtAmountSent",
                    "type": "uint256"
                },
                {
                    "internalType": "uint256",
                    "name": "claimedQuantity",
                    "type": "uint256"
                }
            ],
            "stateMutability": "view",
            "type": "function"
        },
        {
            "inputs": [],
            "name": "withdrawRemainingTokens",
            "outputs": [],
            "stateMutability": "nonpayable",
            "type": "function"
        }
    ],
    "bytecode": "0x60a06040523480156200001157600080fd5b50604051620059e9380380620059e983398181016040528101906200003791906200022f565b33600073ffffffffffffffffffffffffffffffffffffffff168173ffffffffffffffffffffffffffffffffffffffff1603620000ad5760006040517f1e4fbdf7000000000000000000000000000000000000000000000000000000008152600401620000a4919062000272565b60405180910390fd5b620000be816200010160201b60201c565b50600180819055508073ffffffffffffffffffffffffffffffffffffffff1660808173ffffffffffffffffffffffffffffffffffffffff1681525050506200028f565b60008060009054906101000a900473ffffffffffffffffffffffffffffffffffffffff169050816000806101000a81548173ffffffffffffffffffffffffffffffffffffffff021916908373ffffffffffffffffffffffffffffffffffffffff1602179055508173ffffffffffffffffffffffffffffffffffffffff168173ffffffffffffffffffffffffffffffffffffffff167f8be0079c531659141344cd1fd0a4f28419497f9722a3daafe3b4186f6b6457e060405160405180910390a35050565b600080fd5b600073ffffffffffffffffffffffffffffffffffffffff82169050919050565b6000620001f782620001ca565b9050919050565b6200020981620001ea565b81146200021557600080fd5b50565b6000815190506200022981620001fe565b92915050565b600060208284031215620002485762000247620001c5565b5b6000620002588482850162000218565b91505092915050565b6200026c81620001ea565b82525050565b600060208201905062000289600083018462000261565b92915050565b608051615714620002d560003960008181611bd001528181611e08015281816127e30152818161310a015281816133e801528181613b2d0152613c8001526157146000f3fe6080604052600436106102195760003560e01c8063715018a611610123578063b4c0fbfc116100ab578063e6ab14341161006f578063e6ab143414610808578063f2fde38b14610849578063fa0780bf14610872578063fb758c06146108af578063fc0c546a146108d857610219565b8063b4c0fbfc146106fd578063cb81d8e11461073a578063d099850a14610777578063d707dfd1146107a0578063e18e84f9146107dd57610219565b80638da5cb5b116100f25780638da5cb5b1461063c5780639ad0e6c6146106675780639ecc0cdd146106925780639f9742c8146106bd578063a2b40d19146106d457610219565b8063715018a6146105a65780637633ede2146105bd57806379b8d938146105e85780638afbf6691461062557610219565b8063272dc820116101a657806342f0f4401161017557806342f0f4401461048757806344f20fc3146104c457806346e04a2f146105015780635b7baf641461053e578063627b01c81461057b57610219565b8063272dc820146103c95780632f48ab7d1461040657806330c0b9ec146104315780633e413bee1461045c57610219565b80630dc9c838116101ed5780630dc9c838146102c657806311b5444f146102ef57806313251f351461030d57806314feaa9d1461034a57806325cbe6ef1461038b57610219565b8062dde10e1461021e57806304f6d79e1461025b578063070f5c09146102865780630888d6921461029d575b600080fd5b34801561022a57600080fd5b50610245600480360381019061024091906142b7565b610903565b60405161025291906142ff565b60405180910390f35b34801561026757600080fd5b50610270610923565b60405161027d9190614399565b60405180910390f35b34801561029257600080fd5b5061029b61093b565b005b3480156102a957600080fd5b506102c460048036038101906102bf91906143e0565b610a10565b005b3480156102d257600080fd5b506102ed60048036038101906102e8919061440d565b610da6565b005b6102f7611163565b60405161030491906142ff565b60405180910390f35b34801561031957600080fd5b50610334600480360381019061032f919061448b565b6113dd565b60405161034191906142ff565b60405180910390f35b34801561035657600080fd5b50610371600480360381019061036c919061448b565b61161e565b6040516103829594939291906144da565b60405180910390f35b34801561039757600080fd5b506103b260048036038101906103ad91906142b7565b611661565b6040516103c092919061452d565b60405180910390f35b3480156103d557600080fd5b506103f060048036038101906103eb91906142b7565b61169f565b6040516103fd9190614556565b60405180910390f35b34801561041257600080fd5b5061041b611782565b6040516104289190614592565b60405180910390f35b34801561043d57600080fd5b5061044661179a565b6040516104539190614556565b60405180910390f35b34801561046857600080fd5b50610471611847565b60405161047e9190614592565b60405180910390f35b34801561049357600080fd5b506104ae60048036038101906104a991906142b7565b61185f565b6040516104bb9190614556565b60405180910390f35b3480156104d057600080fd5b506104eb60048036038101906104e691906142b7565b611a4d565b6040516104f89190614556565b60405180910390f35b34801561050d57600080fd5b50610528600480360381019061052391906142b7565b611ae0565b60405161053591906142ff565b60405180910390f35b34801561054a57600080fd5b50610565600480360381019061056091906142b7565b611f0a565b60405161057291906142ff565b60405180910390f35b34801561058757600080fd5b506105906123e8565b60405161059d9190614556565b60405180910390f35b3480156105b257600080fd5b506105bb612495565b005b3480156105c957600080fd5b506105d26124a9565b6040516105df9190614399565b60405180910390f35b3480156105f457600080fd5b5061060f600480360381019061060a919061448b565b6124c1565b60405161061c9190614556565b60405180910390f35b34801561063157600080fd5b5061063a6126b0565b005b34801561064857600080fd5b506106516128c5565b60405161065e91906145bc565b60405180910390f35b34801561067357600080fd5b5061067c6128ee565b6040516106899190614399565b60405180910390f35b34801561069e57600080fd5b506106a7612906565b6040516106b49190614556565b60405180910390f35b3480156106c957600080fd5b506106d26129b3565b005b3480156106e057600080fd5b506106fb60048036038101906106f691906142b7565b612a87565b005b34801561070957600080fd5b50610724600480360381019061071f91906142b7565b612c29565b6040516107319190614556565b60405180910390f35b34801561074657600080fd5b50610761600480360381019061075c91906142b7565b612d02565b60405161076e91906142ff565b60405180910390f35b34801561078357600080fd5b5061079e600480360381019061079991906145d7565b613021565b005b3480156107ac57600080fd5b506107c760048036038101906107c291906142b7565b613590565b6040516107d491906142ff565b60405180910390f35b3480156107e957600080fd5b506107f261385b565b6040516107ff9190614556565b60405180910390f35b34801561081457600080fd5b5061082f600480360381019061082a91906142b7565b613861565b6040516108409594939291906144da565b60405180910390f35b34801561085557600080fd5b50610870600480360381019061086b919061463e565b613897565b005b34801561087e57600080fd5b50610899600480360381019061089491906142b7565b61391d565b6040516108a69190614556565b60405180910390f35b3480156108bb57600080fd5b506108d660048036038101906108d191906142b7565b6139f6565b005b3480156108e457600080fd5b506108ed613c7e565b6040516108fa9190614592565b60405180910390f35b60046020528060005260406000206000915054906101000a900460ff1681565b73ab5c49580294aff77670f839ea425f5b78ab3ae781565b610943613ca2565b60046000600254815260200190815260200160002060009054906101000a900460ff16156109a6576040517f08c379a000000000000000000000000000000000000000000000000000000000815260040161099d906146c8565b60405180910390fd5b600160046000600254815260200190815260200160002060006101000a81548160ff0219169083151502179055506002547f927e6cd2dce24f32508868820cdc35f09d9de0f4b44e945114110125196fba9f42604051610a069190614556565b60405180910390a2565b610a18613ca2565b600560006002548152602001908152602001600020600101544211610a72576040517f08c379a0000000000000000000000000000000000000000000000000000000008152600401610a6990614734565b60405180910390fd5b60066000600254815260200190815260200160002060000160009054906101000a900460ff1615610ad8576040517f08c379a0000000000000000000000000000000000000000000000000000000008152600401610acf906147a0565b60405180910390fd5b600160066000600254815260200190815260200160002060000160006101000a81548160ff0219169083151502179055508060066000600254815260200190815260200160002060000160016101000a81548160ff0219169083151502179055508015610da35760004790506000811115610b95573373ffffffffffffffffffffffffffffffffffffffff166108fc829081150290604051600060405180830381858888f19350505050158015610b93573d6000803e3d6000fd5b505b600073e606534c63c20599e04687399bfea642dd3e2a0a73ffffffffffffffffffffffffffffffffffffffff166370a08231306040518263ffffffff1660e01b8152600401610be491906145bc565b602060405180830381865afa158015610c01573d6000803e3d6000fd5b505050506040513d601f19601f82011682018060405250810190610c2591906147d5565b90506000811115610cc45773e606534c63c20599e04687399bfea642dd3e2a0a73ffffffffffffffffffffffffffffffffffffffff1663a9059cbb33836040518363ffffffff1660e01b8152600401610c7f929190614802565b6020604051808303816000875af1158015610c9e573d6000803e3d6000fd5b505050506040513d601f19601f82011682018060405250810190610cc29190614840565b505b600073d4b2e420c2a1a6c834a986628d68c5b7272d6faf73ffffffffffffffffffffffffffffffffffffffff166370a08231306040518263ffffffff1660e01b8152600401610d1391906145bc565b602060405180830381865afa158015610d30573d6000803e3d6000fd5b505050506040513d601f19601f82011682018060405250810190610d5491906147d5565b90506000811115610d9f57610d9e338273d4b2e420c2a1a6c834a986628d68c5b7272d6faf73ffffffffffffffffffffffffffffffffffffffff16613d299092919063ffffffff16565b5b5050505b50565b610dae613ca2565b6000821180610dbd5750600081115b610dfc576040517f08c379a0000000000000000000000000000000000000000000000000000000008152600401610df3906148b9565b60405180910390fd5b6000821115610f9c5760046000600254815260200190815260200160002060009054906101000a900460ff1615610e68576040517f08c379a0000000000000000000000000000000000000000000000000000000008152600401610e5f90614925565b60405180910390fd5b600560006002548152602001908152602001600020600001544210610ec2576040517f08c379a0000000000000000000000000000000000000000000000000000000008152600401610eb990614991565b60405180910390fd5b814210610f04576040517f08c379a0000000000000000000000000000000000000000000000000000000008152600401610efb906149fd565b60405180910390fd5b600060056000600254815260200190815260200160002060000154905082600560006002548152602001908152602001600020600001819055507f53544152540000000000000000000000000000000000000000000000000000007f1b2f8f894211ac7f12917463adb7fc11bb80dec57f46ff148b23b4521968ed74828542604051610f9293929190614a1d565b60405180910390a2505b600081111561115f5760046000600254815260200190815260200160002060009054906101000a900460ff1615611008576040517f08c379a0000000000000000000000000000000000000000000000000000000008152600401610fff90614925565b60405180910390fd5b600560006002548152602001908152602001600020600101544210611062576040517f08c379a000000000000000000000000000000000000000000000000000000000815260040161105990614aa0565b60405180910390fd5b600560006002548152602001908152602001600020600001548111801561108857508042105b6110c7576040517f08c379a00000000000000000000000000000000000000000000000000000000081526004016110be90614b0c565b60405180910390fd5b600060056000600254815260200190815260200160002060010154905081600560006002548152602001908152602001600020600101819055507f454e4400000000000000000000000000000000000000000000000000000000007f1b2f8f894211ac7f12917463adb7fc11bb80dec57f46ff148b23b4521968ed7482844260405161115593929190614a1d565b60405180910390a2505b5050565b600061116d613da8565b60046000600254815260200190815260200160002060009054906101000a900460ff16156111d0576040517f08c379a00000000000000000000000000000000000000000000000000000000081526004016111c790614b78565b60405180910390fd5b6000600760003373ffffffffffffffffffffffffffffffffffffffff1673ffffffffffffffffffffffffffffffffffffffff16815260200190815260200160002060006002548152602001908152602001600020905060006112313461169f565b905061123c81613dee565b8060056000600254815260200190815260200160002060040160008282546112649190614bc7565b925050819055506000826000015411156112b3578082600001600082825461128c9190614bfb565b92505081905550348260010160008282546112a79190614bfb565b92505081905550611365565b6040518060a0016040528082815260200134815260200160008152602001600081526020016000815250600760003373ffffffffffffffffffffffffffffffffffffffff1673ffffffffffffffffffffffffffffffffffffffff1681526020019081526020016000206000600254815260200190815260200160002060008201518160000155602082015181600101556040820151816002015560608201518160030155608082015181600401559050505b6002543373ffffffffffffffffffffffffffffffffffffffff167fca1d1d2c3f24bb3f0c4ad90bd9823d2465052996d73438c962e227ea67a206d883346113aa61179a565b6113b49190614c2f565b426040516113c493929190614a1d565b60405180910390a36001925050506113da613ed7565b90565b600060046000600254815260200190815260200160002060009054906101000a900460ff1615611442576040517f08c379a000000000000000000000000000000000000000000000000000000000815260040161143990614b78565b60405180910390fd5b6000600760003373ffffffffffffffffffffffffffffffffffffffff1673ffffffffffffffffffffffffffffffffffffffff16815260200190815260200160002060006002548152602001908152602001600020905060006114a384611a4d565b90506114ae81613dee565b8060056000600254815260200190815260200160002060040160008282546114d69190614bc7565b9250508190555060008260000154111561150a57808260000160008282546114fe9190614bfb565b925050819055506115bd565b6040518060a001604052808281526020016000815260200160008152602001600081526020016000815250600760003373ffffffffffffffffffffffffffffffffffffffff1673ffffffffffffffffffffffffffffffffffffffff1681526020019081526020016000206000600254815260200190815260200160002060008201518160000155602082015181600101556040820151816002015560608201518160030155608082015181600401559050505b6002548573ffffffffffffffffffffffffffffffffffffffff167fca1d1d2c3f24bb3f0c4ad90bd9823d2465052996d73438c962e227ea67a206d883874260405161160a93929190614a1d565b60405180910390a360019250505092915050565b6007602052816000526040600020602052806000526040600020600091509150508060000154908060010154908060020154908060030154908060040154905085565b60066020528060005260406000206000915090508060000160009054906101000a900460ff16908060000160019054906101000a900460ff16905082565b6000806305f5e1006116af61179a565b670de0b6b3a7640000600560006002548152602001908152602001600020600201546305f5e1006116e09190614ca0565b6116ea9190614c2f565b6116f49190614c2f565b6116fe9190614ca0565b90506000670de0b6b3a764000084836117179190614c2f565b6117219190614ca0565b90506000611753670de0b6b3a76400008661173a61179a565b6117449190614c2f565b61174e9190614ca0565b61185f565b905081606482846117649190614c2f565b61176e9190614ca0565b6117789190614bfb565b9350505050919050565b73d4b2e420c2a1a6c834a986628d68c5b7272d6faf81565b60008060008060008073d4a33860578de61dbabdc8bfdb98fd742fa7028e73ffffffffffffffffffffffffffffffffffffffff1663feaf968c6040518163ffffffff1660e01b815260040160a060405180830381865afa158015611802573d6000803e3d6000fd5b505050506040513d601f19601f820116820180604052508101906118269190614d49565b945094509450945069ffffffffffffffffffff169450839550505050505090565b73e606534c63c20599e04687399bfea642dd3e2a0a81565b60006101f46305f5e100836118749190614ca0565b10156118835760009050611a48565b6101f46305f5e100836118969190614ca0565b101580156118b457506102ee6305f5e100836118b29190614ca0565b105b156118c257600a9050611a47565b6102ee6305f5e100836118d59190614ca0565b101580156118f357506103e86305f5e100836118f19190614ca0565b105b1561190157600c9050611a46565b6103e86305f5e100836119149190614ca0565b101580156119325750610bb86305f5e100836119309190614ca0565b105b1561194057600e9050611a45565b610bb86305f5e100836119539190614ca0565b1015801561197157506113886305f5e1008361196f9190614ca0565b105b1561197f5760109050611a44565b6113886305f5e100836119929190614ca0565b101580156119b057506127106305f5e100836119ae9190614ca0565b105b156119be5760129050611a43565b6127106305f5e100836119d19190614ca0565b101580156119ef57506161a86305f5e100836119ed9190614ca0565b105b156119fd5760149050611a42565b6161a86305f5e10083611a109190614ca0565b10158015611a2e575061c3506305f5e10083611a2c9190614ca0565b105b15611a3c5760169050611a41565b601990505b5b5b5b5b5b5b5b919050565b6000806305f5e10083670de0b6b3a7640000600560006002548152602001908152602001600020600201546305f5e100611a879190614ca0565b611a919190614c2f565b611a9b9190614c2f565b611aa59190614ca0565b90506000611ab28461185f565b90508160648284611ac39190614c2f565b611acd9190614ca0565b611ad79190614bfb565b92505050919050565b6000611aea613da8565b8160008103611cc8576006600084815260200190815260200160002060000160019054906101000a900460ff16611b56576040517f08c379a0000000000000000000000000000000000000000000000000000000008152600401611b4d90614e10565b60405180910390fd5b6000611b6233856124c1565b905080600760003373ffffffffffffffffffffffffffffffffffffffff1673ffffffffffffffffffffffffffffffffffffffff16815260200190815260200160002060008681526020019081526020016000206004016000828254611bc79190614bfb565b925050819055507f000000000000000000000000000000000000000000000000000000000000000073ffffffffffffffffffffffffffffffffffffffff1663a9059cbb33836040518363ffffffff1660e01b8152600401611c29929190614802565b6020604051808303816000875af1158015611c48573d6000803e3d6000fd5b505050506040513d601f19601f82011682018060405250810190611c6c9190614840565b50833373ffffffffffffffffffffffffffffffffffffffff167fe49649ad7d04a14b0d2a43dae89f207c0822143ff6f88a6480e88907e4e5c5488342604051611cb6929190614e30565b60405180910390a36001925050611efc565b6006600082815260200190815260200160002060000160009054906101000a900460ff16611d2b576040517f08c379a0000000000000000000000000000000000000000000000000000000008152600401611d2290614ecb565b60405180910390fd5b6006600084815260200190815260200160002060000160019054906101000a900460ff16611d8e576040517f08c379a0000000000000000000000000000000000000000000000000000000008152600401611d8590614e10565b60405180910390fd5b6000611d9a33856124c1565b905080600760003373ffffffffffffffffffffffffffffffffffffffff1673ffffffffffffffffffffffffffffffffffffffff16815260200190815260200160002060008681526020019081526020016000206004016000828254611dff9190614bfb565b925050819055507f000000000000000000000000000000000000000000000000000000000000000073ffffffffffffffffffffffffffffffffffffffff1663a9059cbb33836040518363ffffffff1660e01b8152600401611e61929190614802565b6020604051808303816000875af1158015611e80573d6000803e3d6000fd5b505050506040513d601f19601f82011682018060405250810190611ea49190614840565b50833373ffffffffffffffffffffffffffffffffffffffff167fe49649ad7d04a14b0d2a43dae89f207c0822143ff6f88a6480e88907e4e5c5488342604051611eee929190614e30565b60405180910390a360019250505b50611f05613ed7565b919050565b6000611f14613da8565b816000810361214c576006600084815260200190815260200160002060000160019054906101000a900460ff1615611f81576040517f08c379a0000000000000000000000000000000000000000000000000000000008152600401611f7890614f5d565b60405180910390fd5b6000600760003373ffffffffffffffffffffffffffffffffffffffff1673ffffffffffffffffffffffffffffffffffffffff16815260200190815260200160002060008581526020019081526020016000209050600081600101541115612038573373ffffffffffffffffffffffffffffffffffffffff166108fc82600101549081150290604051600060405180830381858888f1935050505015801561202c573d6000803e3d6000fd5b50600081600101819055505b6000816002015411156120e75773e606534c63c20599e04687399bfea642dd3e2a0a73ffffffffffffffffffffffffffffffffffffffff1663a9059cbb3383600201546040518363ffffffff1660e01b8152600401612098929190614802565b6020604051808303816000875af11580156120b7573d6000803e3d6000fd5b505050506040513d601f19601f820116820180604052508101906120db9190614840565b50600081600201819055505b6000816003015411156121425761213733826003015473d4b2e420c2a1a6c834a986628d68c5b7272d6faf73ffffffffffffffffffffffffffffffffffffffff16613d299092919063ffffffff16565b600081600301819055505b60019250506123da565b6006600082815260200190815260200160002060000160009054906101000a900460ff166121af576040517f08c379a00000000000000000000000000000000000000000000000000000000081526004016121a690614ecb565b60405180910390fd5b6006600084815260200190815260200160002060000160019054906101000a900460ff1615612213576040517f08c379a000000000000000000000000000000000000000000000000000000000815260040161220a90614f5d565b60405180910390fd5b6000600760003373ffffffffffffffffffffffffffffffffffffffff1673ffffffffffffffffffffffffffffffffffffffff168152602001908152602001600020600085815260200190815260200160002090506000816001015411156122ca573373ffffffffffffffffffffffffffffffffffffffff166108fc82600101549081150290604051600060405180830381858888f193505050501580156122be573d6000803e3d6000fd5b50600081600101819055505b6000816002015411156123795773e606534c63c20599e04687399bfea642dd3e2a0a73ffffffffffffffffffffffffffffffffffffffff1663a9059cbb3383600201546040518363ffffffff1660e01b815260040161232a929190614802565b6020604051808303816000875af1158015612349573d6000803e3d6000fd5b505050506040513d601f19601f8201168201806040525081019061236d9190614840565b50600081600201819055505b6000816003015411156123d4576123c933826003015473d4b2e420c2a1a6c834a986628d68c5b7272d6faf73ffffffffffffffffffffffffffffffffffffffff16613d299092919063ffffffff16565b600081600301819055505b60019250505b506123e3613ed7565b919050565b60008060008060008073ab5c49580294aff77670f839ea425f5b78ab3ae773ffffffffffffffffffffffffffffffffffffffff1663feaf968c6040518163ffffffff1660e01b815260040160a060405180830381865afa158015612450573d6000803e3d6000fd5b505050506040513d601f19601f820116820180604052508101906124749190614d49565b945094509450945069ffffffffffffffffffff169450839550505050505090565b61249d613ca2565b6124a76000613ee0565b565b73ab5c49580294aff77670f839ea425f5b78ab3ae781565b600080600760008573ffffffffffffffffffffffffffffffffffffffff1673ffffffffffffffffffffffffffffffffffffffff16815260200190815260200160002060008481526020019081526020016000206040518060a00160405290816000820154815260200160018201548152602001600282015481526020016003820154815260200160048201548152505090506000600660008581526020019081526020016000206040518060400160405290816000820160009054906101000a900460ff161515151581526020016000820160019054906101000a900460ff16151515158152505090506000816000015115806125bf575081602001515b905080612601576040517f08c379a00000000000000000000000000000000000000000000000000000000081526004016125f890614fc9565b60405180910390fd5b6000836000015111612648576040517f08c379a000000000000000000000000000000000000000000000000000000000815260040161263f90615035565b60405180910390fd5b60008360800151846000015161265e9190614bc7565b9050600081116126a3576040517f08c379a000000000000000000000000000000000000000000000000000000000815260040161269a906150a1565b60405180910390fd5b8094505050505092915050565b6126b8613ca2565b60046000600254815260200190815260200160002060009054906101000a900460ff161561271b576040517f08c379a00000000000000000000000000000000000000000000000000000000081526004016127129061510d565b60405180910390fd5b60066000600254815260200190815260200160002060000160009054906101000a900460ff16612780576040517f08c379a00000000000000000000000000000000000000000000000000000000081526004016127779061519f565b60405180910390fd5b60008060016003546127929190614bfb565b90505b60025481116127d5576005600082815260200190815260200160002060040154826127c09190614bfb565b915080806127cd906151bf565b915050612795565b5060025460038190555060007f000000000000000000000000000000000000000000000000000000000000000073ffffffffffffffffffffffffffffffffffffffff1663a9059cbb33846040518363ffffffff1660e01b815260040161283c929190614802565b6020604051808303816000875af115801561285b573d6000803e3d6000fd5b505050506040513d601f19601f8201168201806040525081019061287f9190614840565b9050806128c1576040517f08c379a00000000000000000000000000000000000000000000000000000000081526004016128b890615253565b60405180910390fd5b5050565b60008060009054906101000a900473ffffffffffffffffffffffffffffffffffffffff16905090565b73d4a33860578de61dbabdc8bfdb98fd742fa7028e81565b60008060008060008073ab5c49580294aff77670f839ea425f5b78ab3ae773ffffffffffffffffffffffffffffffffffffffff1663feaf968c6040518163ffffffff1660e01b815260040160a060405180830381865afa15801561296e573d6000803e3d6000fd5b505050506040513d601f19601f820116820180604052508101906129929190614d49565b945094509450945069ffffffffffffffffffff169450839550505050505090565b6129bb613ca2565b60046000600254815260200190815260200160002060009054906101000a900460ff16612a1d576040517f08c379a0000000000000000000000000000000000000000000000000000000008152600401612a14906152bf565b60405180910390fd5b600060046000600254815260200190815260200160002060006101000a81548160ff0219169083151502179055506002547ff608654a6d8e1785594639dd55babb61d7ae157382015f904a24224e50333b1d42604051612a7d9190614556565b60405180910390a2565b612a8f613ca2565b60008111612ad2576040517f08c379a0000000000000000000000000000000000000000000000000000000008152600401612ac99061532b565b60405180910390fd5b60046000600254815260200190815260200160002060009054906101000a900460ff1615612b35576040517f08c379a0000000000000000000000000000000000000000000000000000000008152600401612b2c90614925565b60405180910390fd5b600560006002548152602001908152602001600020600001544210612b8f576040517f08c379a0000000000000000000000000000000000000000000000000000000008152600401612b8690614991565b60405180910390fd5b600060056000600254815260200190815260200160002060020154905081600560006002548152602001908152602001600020600201819055507f50524943450000000000000000000000000000000000000000000000000000007f1b2f8f894211ac7f12917463adb7fc11bb80dec57f46ff148b23b4521968ed74828442604051612c1d93929190614a1d565b60405180910390a25050565b6000806305f5e100612c396123e8565b670de0b6b3a7640000600560006002548152602001908152602001600020600201546305f5e100612c6a9190614ca0565b612c749190614c2f565b612c7e9190614c2f565b612c889190614ca0565b90506000620f42408483612c9c9190614c2f565b612ca69190614ca0565b90506000612cd3620f424086612cba6123e8565b612cc49190614c2f565b612cce9190614ca0565b61185f565b90508160648284612ce49190614c2f565b612cee9190614ca0565b612cf89190614bfb565b9350505050919050565b6000612d0c613da8565b60046000600254815260200190815260200160002060009054906101000a900460ff1615612d6f576040517f08c379a0000000000000000000000000000000000000000000000000000000008152600401612d6690614b78565b60405180910390fd5b6000600760003373ffffffffffffffffffffffffffffffffffffffff1673ffffffffffffffffffffffffffffffffffffffff1681526020019081526020016000206000600254815260200190815260200160002090506000612dd084612c29565b9050612ddb81613dee565b73e606534c63c20599e04687399bfea642dd3e2a0a73ffffffffffffffffffffffffffffffffffffffff166323b872dd3330876040518463ffffffff1660e01b8152600401612e2c9392919061534b565b6020604051808303816000875af1158015612e4b573d6000803e3d6000fd5b505050506040513d601f19601f82011682018060405250810190612e6f9190614840565b50806005600060025481526020019081526020016000206004016000828254612e989190614bc7565b92505081905550600082600001541115612ee75780826000016000828254612ec09190614bfb565b9250508190555083826002016000828254612edb9190614bfb565b92505081905550612f99565b6040518060a0016040528082815260200160008152602001858152602001600081526020016000815250600760003373ffffffffffffffffffffffffffffffffffffffff1673ffffffffffffffffffffffffffffffffffffffff1681526020019081526020016000206000600254815260200190815260200160002060008201518160000155602082015181600101556040820151816002015560608201518160030155608082015181600401559050505b6002543373ffffffffffffffffffffffffffffffffffffffff167fca1d1d2c3f24bb3f0c4ad90bd9823d2465052996d73438c962e227ea67a206d883620f424088612fe26123e8565b612fec9190614c2f565b612ff69190614ca0565b4260405161300693929190614a1d565b60405180910390a360019250505061301c613ed7565b919050565b613029613ca2565b600254600081036132af57428511801561304257508484115b613081576040517f08c379a0000000000000000000000000000000000000000000000000000000008152600401613078906153ce565b60405180910390fd5b600083116130c4576040517f08c379a00000000000000000000000000000000000000000000000000000000081526004016130bb90615460565b60405180910390fd5b60008211613107576040517f08c379a00000000000000000000000000000000000000000000000000000000081526004016130fe906154f2565b60405180910390fd5b817f000000000000000000000000000000000000000000000000000000000000000073ffffffffffffffffffffffffffffffffffffffff166370a08231306040518263ffffffff1660e01b815260040161316191906145bc565b602060405180830381865afa15801561317e573d6000803e3d6000fd5b505050506040513d601f19601f820116820180604052508101906131a291906147d5565b10156131e3576040517f08c379a00000000000000000000000000000000000000000000000000000000081526004016131da9061555e565b60405180910390fd5b600260008154809291906131f6906151bf565b91905055506040518060a001604052808681526020018581526020018481526020018381526020018381525060056000600254815260200190815260200160002060008201518160000155602082015181600101556040820151816002015560608201518160030155608082015181600401559050506002547f6a00651728a92841411081673eaa4eddbed06d102a590e050c22def40d4dd0b88686856040516132a293929190614a1d565b60405180910390a2613589565b6006600082815260200190815260200160002060000160009054906101000a900460ff16613312576040517f08c379a000000000000000000000000000000000000000000000000000000000815260040161330990614ecb565b60405180910390fd5b428511801561332057508484115b61335f576040517f08c379a0000000000000000000000000000000000000000000000000000000008152600401613356906153ce565b60405180910390fd5b600083116133a2576040517f08c379a000000000000000000000000000000000000000000000000000000000815260040161339990615460565b60405180910390fd5b600082116133e5576040517f08c379a00000000000000000000000000000000000000000000000000000000081526004016133dc906154f2565b60405180910390fd5b817f000000000000000000000000000000000000000000000000000000000000000073ffffffffffffffffffffffffffffffffffffffff166370a08231306040518263ffffffff1660e01b815260040161343f91906145bc565b602060405180830381865afa15801561345c573d6000803e3d6000fd5b505050506040513d601f19601f8201168201806040525081019061348091906147d5565b10156134c1576040517f08c379a00000000000000000000000000000000000000000000000000000000081526004016134b89061555e565b60405180910390fd5b600260008154809291906134d4906151bf565b91905055506040518060a001604052808681526020018581526020018481526020018381526020018381525060056000600254815260200190815260200160002060008201518160000155602082015181600101556040820151816002015560608201518160030155608082015181600401559050506002547f6a00651728a92841411081673eaa4eddbed06d102a590e050c22def40d4dd0b886868560405161358093929190614a1d565b60405180910390a25b5050505050565b600061359a613da8565b60046000600254815260200190815260200160002060009054906101000a900460ff16156135fd576040517f08c379a00000000000000000000000000000000000000000000000000000000081526004016135f490614b78565b60405180910390fd5b6000600760003373ffffffffffffffffffffffffffffffffffffffff1673ffffffffffffffffffffffffffffffffffffffff168152602001908152602001600020600060025481526020019081526020016000209050600061365e8461391d565b905061366981613dee565b6136aa33308673d4b2e420c2a1a6c834a986628d68c5b7272d6faf73ffffffffffffffffffffffffffffffffffffffff16613fa4909392919063ffffffff16565b8060056000600254815260200190815260200160002060040160008282546136d29190614bc7565b9250508190555060008260000154111561372157808260000160008282546136fa9190614bfb565b92505081905550838260030160008282546137159190614bfb565b925050819055506137d3565b6040518060a0016040528082815260200160008152602001600081526020018581526020016000815250600760003373ffffffffffffffffffffffffffffffffffffffff1673ffffffffffffffffffffffffffffffffffffffff1681526020019081526020016000206000600254815260200190815260200160002060008201518160000155602082015181600101556040820151816002015560608201518160030155608082015181600401559050505b6002543373ffffffffffffffffffffffffffffffffffffffff167fca1d1d2c3f24bb3f0c4ad90bd9823d2465052996d73438c962e227ea67a206d883620f42408861381c612906565b6138269190614c2f565b6138309190614ca0565b4260405161384093929190614a1d565b60405180910390a3600192505050613856613ed7565b919050565b60025481565b60056020528060005260406000206000915090508060000154908060010154908060020154908060030154908060040154905085565b61389f613ca2565b600073ffffffffffffffffffffffffffffffffffffffff168173ffffffffffffffffffffffffffffffffffffffff16036139115760006040517f1e4fbdf700000000000000000000000000000000000000000000000000000000815260040161390891906145bc565b60405180910390fd5b61391a81613ee0565b50565b6000806305f5e10061392d612906565b670de0b6b3a7640000600560006002548152602001908152602001600020600201546305f5e10061395e9190614ca0565b6139689190614c2f565b6139729190614c2f565b61397c9190614ca0565b90506000620f424084836139909190614c2f565b61399a9190614ca0565b905060006139c7620f4240866139ae612906565b6139b89190614c2f565b6139c29190614ca0565b61185f565b905081606482846139d89190614c2f565b6139e29190614ca0565b6139ec9190614bfb565b9350505050919050565b6139fe613ca2565b60046000600254815260200190815260200160002060009054906101000a900460ff1615613a61576040517f08c379a0000000000000000000000000000000000000000000000000000000008152600401613a5890614925565b60405180910390fd5b600560006002548152602001908152602001600020600001544210613abb576040517f08c379a0000000000000000000000000000000000000000000000000000000008152600401613ab290614991565b60405180910390fd5b600060056000600254815260200190815260200160002060030154905081600560006002548152602001908152602001600020600301819055508160056000600254815260200190815260200160002060040181905550600560006002548152602001908152602001600020600301547f000000000000000000000000000000000000000000000000000000000000000073ffffffffffffffffffffffffffffffffffffffff166370a08231306040518263ffffffff1660e01b8152600401613b8491906145bc565b602060405180830381865afa158015613ba1573d6000803e3d6000fd5b505050506040513d601f19601f82011682018060405250810190613bc591906147d5565b1015613c06576040517f08c379a0000000000000000000000000000000000000000000000000000000008152600401613bfd9061555e565b60405180910390fd5b7f546f6b656e416d6f756e740000000000000000000000000000000000000000007f1b2f8f894211ac7f12917463adb7fc11bb80dec57f46ff148b23b4521968ed74826005600060025481526020019081526020016000206003015442604051613c7293929190614a1d565b60405180910390a25050565b7f000000000000000000000000000000000000000000000000000000000000000081565b613caa614026565b73ffffffffffffffffffffffffffffffffffffffff16613cc86128c5565b73ffffffffffffffffffffffffffffffffffffffff1614613d2757613ceb614026565b6040517f118cdaa7000000000000000000000000000000000000000000000000000000008152600401613d1e91906145bc565b60405180910390fd5b565b613da3838473ffffffffffffffffffffffffffffffffffffffff1663a9059cbb8585604051602401613d5c929190614802565b604051602081830303815290604052915060e01b6020820180517bffffffffffffffffffffffffffffffffffffffffffffffffffffffff838183161783525050505061402e565b505050565b600260015403613de4576040517f3ee5aeb500000000000000000000000000000000000000000000000000000000815260040160405180910390fd5b6002600181905550565b600560006002548152602001908152602001600020600001544210158015613e2e5750600560006002548152602001908152602001600020600101544211155b613e6d576040517f08c379a0000000000000000000000000000000000000000000000000000000008152600401613e64906155ca565b60405180910390fd5b600081118015613e955750600560006002548152602001908152602001600020600401548111155b613ed4576040517f08c379a0000000000000000000000000000000000000000000000000000000008152600401613ecb90615636565b60405180910390fd5b50565b60018081905550565b60008060009054906101000a900473ffffffffffffffffffffffffffffffffffffffff169050816000806101000a81548173ffffffffffffffffffffffffffffffffffffffff021916908373ffffffffffffffffffffffffffffffffffffffff1602179055508173ffffffffffffffffffffffffffffffffffffffff168173ffffffffffffffffffffffffffffffffffffffff167f8be0079c531659141344cd1fd0a4f28419497f9722a3daafe3b4186f6b6457e060405160405180910390a35050565b614020848573ffffffffffffffffffffffffffffffffffffffff166323b872dd868686604051602401613fd99392919061534b565b604051602081830303815290604052915060e01b6020820180517bffffffffffffffffffffffffffffffffffffffffffffffffffffffff838183161783525050505061402e565b50505050565b600033905090565b6000614059828473ffffffffffffffffffffffffffffffffffffffff166140c590919063ffffffff16565b9050600081511415801561407e57508080602001905181019061407c9190614840565b155b156140c057826040517f5274afe70000000000000000000000000000000000000000000000000000000081526004016140b791906145bc565b60405180910390fd5b505050565b60606140d3838360006140db565b905092915050565b60608147101561412257306040517fcd78605900000000000000000000000000000000000000000000000000000000815260040161411991906145bc565b60405180910390fd5b6000808573ffffffffffffffffffffffffffffffffffffffff16848660405161414b91906156c7565b60006040518083038185875af1925050503d8060008114614188576040519150601f19603f3d011682016040523d82523d6000602084013e61418d565b606091505b509150915061419d8683836141a8565b925050509392505050565b6060826141bd576141b882614237565b61422f565b600082511480156141e5575060008473ffffffffffffffffffffffffffffffffffffffff163b145b1561422757836040517f9996b31500000000000000000000000000000000000000000000000000000000815260040161421e91906145bc565b60405180910390fd5b819050614230565b5b9392505050565b60008151111561424a5780518082602001fd5b6040517f1425ea4200000000000000000000000000000000000000000000000000000000815260040160405180910390fd5b600080fd5b6000819050919050565b61429481614281565b811461429f57600080fd5b50565b6000813590506142b18161428b565b92915050565b6000602082840312156142cd576142cc61427c565b5b60006142db848285016142a2565b91505092915050565b60008115159050919050565b6142f9816142e4565b82525050565b600060208201905061431460008301846142f0565b92915050565b600073ffffffffffffffffffffffffffffffffffffffff82169050919050565b6000819050919050565b600061435f61435a6143558461431a565b61433a565b61431a565b9050919050565b600061437182614344565b9050919050565b600061438382614366565b9050919050565b61439381614378565b82525050565b60006020820190506143ae600083018461438a565b92915050565b6143bd816142e4565b81146143c857600080fd5b50565b6000813590506143da816143b4565b92915050565b6000602082840312156143f6576143f561427c565b5b6000614404848285016143cb565b91505092915050565b600080604083850312156144245761442361427c565b5b6000614432858286016142a2565b9250506020614443858286016142a2565b9150509250929050565b60006144588261431a565b9050919050565b6144688161444d565b811461447357600080fd5b50565b6000813590506144858161445f565b92915050565b600080604083850312156144a2576144a161427c565b5b60006144b085828601614476565b92505060206144c1858286016142a2565b9150509250929050565b6144d481614281565b82525050565b600060a0820190506144ef60008301886144cb565b6144fc60208301876144cb565b61450960408301866144cb565b61451660608301856144cb565b61452360808301846144cb565b9695505050505050565b600060408201905061454260008301856142f0565b61454f60208301846142f0565b9392505050565b600060208201905061456b60008301846144cb565b92915050565b600061457c82614366565b9050919050565b61458c81614571565b82525050565b60006020820190506145a76000830184614583565b92915050565b6145b68161444d565b82525050565b60006020820190506145d160008301846145ad565b92915050565b600080600080608085870312156145f1576145f061427c565b5b60006145ff878288016142a2565b9450506020614610878288016142a2565b9350506040614621878288016142a2565b9250506060614632878288016142a2565b91505092959194509250565b6000602082840312156146545761465361427c565b5b600061466284828501614476565b91505092915050565b600082825260208201905092915050565b7f416c726561647920706175736564000000000000000000000000000000000000600082015250565b60006146b2600e8361466b565b91506146bd8261467c565b602082019050919050565b600060208201905081810360008301526146e1816146a5565b9050919050565b7f70726573616c65206973207374696c6c2070656e64696e670000000000000000600082015250565b600061471e60188361466b565b9150614729826146e8565b602082019050919050565b6000602082019050818103600083015261474d81614711565b9050919050565b7f43616e206f6e6c792062652063616c6c6564206f6e6365000000000000000000600082015250565b600061478a60178361466b565b915061479582614754565b602082019050919050565b600060208201905081810360008301526147b98161477d565b9050919050565b6000815190506147cf8161428b565b92915050565b6000602082840312156147eb576147ea61427c565b5b60006147f9848285016147c0565b91505092915050565b600060408201905061481760008301856145ad565b61482460208301846144cb565b9392505050565b60008151905061483a816143b4565b92915050565b6000602082840312156148565761485561427c565b5b60006148648482850161482b565b91505092915050565b7f496e76616c696420706172616d65746572730000000000000000000000000000600082015250565b60006148a360128361466b565b91506148ae8261486d565b602082019050919050565b600060208201905081810360008301526148d281614896565b9050919050565b7f43616e6e2774206368616e6765207768656e2070617573656400000000000000600082015250565b600061490f60198361466b565b915061491a826148d9565b602082019050919050565b6000602082019050818103600083015261493e81614902565b9050919050565b7f53616c6520616c72656164792073746172746564000000000000000000000000600082015250565b600061497b60148361466b565b915061498682614945565b602082019050919050565b600060208201905081810360008301526149aa8161496e565b9050919050565b7f53616c652074696d6520696e2070617374000000000000000000000000000000600082015250565b60006149e760118361466b565b91506149f2826149b1565b602082019050919050565b60006020820190508181036000830152614a16816149da565b9050919050565b6000606082019050614a3260008301866144cb565b614a3f60208301856144cb565b614a4c60408301846144cb565b949350505050565b7f53616c6520616c726561647920656e6465640000000000000000000000000000600082015250565b6000614a8a60128361466b565b9150614a9582614a54565b602082019050919050565b60006020820190508181036000830152614ab981614a7d565b9050919050565b7f496e76616c696420656e6454696d650000000000000000000000000000000000600082015250565b6000614af6600f8361466b565b9150614b0182614ac0565b602082019050919050565b60006020820190508181036000830152614b2581614ae9565b9050919050565b7f50726573616c6520706175736564000000000000000000000000000000000000600082015250565b6000614b62600e8361466b565b9150614b6d82614b2c565b602082019050919050565b60006020820190508181036000830152614b9181614b55565b9050919050565b7f4e487b7100000000000000000000000000000000000000000000000000000000600052601160045260246000fd5b6000614bd282614281565b9150614bdd83614281565b9250828203905081811115614bf557614bf4614b98565b5b92915050565b6000614c0682614281565b9150614c1183614281565b9250828201905080821115614c2957614c28614b98565b5b92915050565b6000614c3a82614281565b9150614c4583614281565b9250828202614c5381614281565b91508282048414831517614c6a57614c69614b98565b5b5092915050565b7f4e487b7100000000000000000000000000000000000000000000000000000000600052601260045260246000fd5b6000614cab82614281565b9150614cb683614281565b925082614cc657614cc5614c71565b5b828204905092915050565b600069ffffffffffffffffffff82169050919050565b614cf081614cd1565b8114614cfb57600080fd5b50565b600081519050614d0d81614ce7565b92915050565b6000819050919050565b614d2681614d13565b8114614d3157600080fd5b50565b600081519050614d4381614d1d565b92915050565b600080600080600060a08688031215614d6557614d6461427c565b5b6000614d7388828901614cfe565b9550506020614d8488828901614d34565b9450506040614d95888289016147c0565b9350506060614da6888289016147c0565b9250506080614db788828901614cfe565b9150509295509295909350565b7f43616e6e277420636c61696d2c2070726573616c65206661696c656400000000600082015250565b6000614dfa601c8361466b565b9150614e0582614dc4565b602082019050919050565b60006020820190508181036000830152614e2981614ded565b9050919050565b6000604082019050614e4560008301856144cb565b614e5260208301846144cb565b9392505050565b7f50726573616c65206973206e6f74206d61726b656420636f6d706c657465642060008201527f7965740000000000000000000000000000000000000000000000000000000000602082015250565b6000614eb560238361466b565b9150614ec082614e59565b604082019050919050565b60006020820190508181036000830152614ee481614ea8565b9050919050565b7f43616e6e277420636c61696d2c2070726573616c65206973207375636365737360008201527f66756c0000000000000000000000000000000000000000000000000000000000602082015250565b6000614f4760238361466b565b9150614f5282614eeb565b604082019050919050565b60006020820190508181036000830152614f7681614f3a565b9050919050565b7f50726573616c65206661696c6564000000000000000000000000000000000000600082015250565b6000614fb3600e8361466b565b9150614fbe82614f7d565b602082019050919050565b60006020820190508181036000830152614fe281614fa6565b9050919050565b7f4e6f7468696e6720746f20636c61696d00000000000000000000000000000000600082015250565b600061501f60108361466b565b915061502a82614fe9565b602082019050919050565b6000602082019050818103600083015261504e81615012565b9050919050565b7f416c726561647920636c61696d65640000000000000000000000000000000000600082015250565b600061508b600f8361466b565b915061509682615055565b602082019050919050565b600060208201905081810360008301526150ba8161507e565b9050919050565b7f43616e6e2774207769746864726177207768656e207061757365640000000000600082015250565b60006150f7601b8361466b565b9150615102826150c1565b602082019050919050565b60006020820190508181036000830152615126816150ea565b9050919050565b7f43616e6e277420776974686472617720756e6c6573732073616c65206973206360008201527f6f6d706c65746564000000000000000000000000000000000000000000000000602082015250565b600061518960288361466b565b91506151948261512d565b604082019050919050565b600060208201905081810360008301526151b88161517c565b9050919050565b60006151ca82614281565b91507fffffffffffffffffffffffffffffffffffffffffffffffffffffffffffffffff82036151fc576151fb614b98565b5b600182019050919050565b7f5472616e73666572206661696c65640000000000000000000000000000000000600082015250565b600061523d600f8361466b565b915061524882615207565b602082019050919050565b6000602082019050818103600083015261526c81615230565b9050919050565b7f4e6f742070617573656400000000000000000000000000000000000000000000600082015250565b60006152a9600a8361466b565b91506152b482615273565b602082019050919050565b600060208201905081810360008301526152d88161529c565b9050919050565b7f496e76616c696420707269636500000000000000000000000000000000000000600082015250565b6000615315600d8361466b565b9150615320826152df565b602082019050919050565b6000602082019050818103600083015261534481615308565b9050919050565b600060608201905061536060008301866145ad565b61536d60208301856145ad565b61537a60408301846144cb565b949350505050565b7f496e76616c69642074696d650000000000000000000000000000000000000000600082015250565b60006153b8600c8361466b565b91506153c382615382565b602082019050919050565b600060208201905081810360008301526153e7816153ab565b9050919050565b7f50726963652073686f756c642062652067726561746572207468616e207a657260008201527f6f00000000000000000000000000000000000000000000000000000000000000602082015250565b600061544a60218361466b565b9150615455826153ee565b604082019050919050565b600060208201905081810360008301526154798161543d565b9050919050565b7f546f6b656e7320746f2073656c6c2073686f756c64206265206772656174657260008201527f207468616e207a65726f00000000000000000000000000000000000000000000602082015250565b60006154dc602a8361466b565b91506154e782615480565b604082019050919050565b6000602082019050818103600083015261550b816154cf565b9050919050565b7f4e6f7420656e6f75676820746f6b656e7320666f722073616c65000000000000600082015250565b6000615548601a8361466b565b915061555382615512565b602082019050919050565b600060208201905081810360008301526155778161553b565b9050919050565b7f496e76616c69642074696d6520666f7220627579696e67000000000000000000600082015250565b60006155b460178361466b565b91506155bf8261557e565b602082019050919050565b600060208201905081810360008301526155e3816155a7565b9050919050565b7f496e76616c696420616d6f756e74000000000000000000000000000000000000600082015250565b6000615620600e8361466b565b915061562b826155ea565b602082019050919050565b6000602082019050818103600083015261564f81615613565b9050919050565b600081519050919050565b600081905092915050565b60005b8381101561568a57808201518184015260208101905061566f565b60008484015250505050565b60006156a182615656565b6156ab8185615661565b93506156bb81856020860161566c565b80840191505092915050565b60006156d38284615696565b91508190509291505056fea2646970667358221220a485513d732a5a4370d466af22eabcb78ae90ff750e5a99a07964bcb9679ab8964736f6c63430008140033",
    "linkReferences": {},
    "deployedLinkReferences": {}
}